{
  "contractName": "CoinFlipGam",
  "abi": [
    {
      "inputs": [],
      "stateMutability": "nonpayable",
      "type": "constructor"
    },
    {
      "anonymous": false,
      "inputs": [
        {
          "indexed": false,
          "internalType": "bool",
          "name": "result",
          "type": "bool"
        }
      ],
      "name": "CoinFliped",
      "type": "event"
    },
    {
      "inputs": [],
      "name": "lastFlipResult",
      "outputs": [
        {
          "internalType": "uint256",
          "name": "",
          "type": "uint256"
        }
      ],
      "stateMutability": "view",
      "type": "function"
    },
    {
      "inputs": [],
      "name": "lastFlipTimestamp",
      "outputs": [
        {
          "internalType": "uint256",
          "name": "",
          "type": "uint256"
        }
      ],
      "stateMutability": "view",
      "type": "function"
    },
    {
      "inputs": [],
      "name": "owner",
      "outputs": [
        {
          "internalType": "address",
          "name": "",
          "type": "address"
        }
      ],
      "stateMutability": "view",
      "type": "function"
    },
    {
      "inputs": [],
      "name": "flipCoin",
      "outputs": [],
      "stateMutability": "nonpayable",
      "type": "function"
    }
  ],
  "bytecode": "0x608060405234801561000f575f80fd5b50335f806101000a81548173ffffffffffffffffffffffffffffffffffffffff021916908373ffffffffffffffffffffffffffffffffffffffff1602179055506103b28061005c5f395ff3fe608060405234801561000f575f80fd5b506004361061004a575f3560e01c8063799ae2231461004e5780638da5cb5b14610058578063a22edadf14610076578063ca03f4e314610094575b5f80fd5b6100566100b2565b005b610060610196565b60405161006d9190610204565b60405180910390f35b61007e6101b9565b60405161008b9190610235565b60405180910390f35b61009c6101bf565b6040516100a99190610235565b60405180910390f35b5f8054906101000a900473ffffffffffffffffffffffffffffffffffffffff1673ffffffffffffffffffffffffffffffffffffffff163373ffffffffffffffffffffffffffffffffffffffff161461013f576040517f08c379a0000000000000000000000000000000000000000000000000000000008152600401610136906102ce565b60405180910390fd5b60024261014c9190610319565b600281905550426001819055507f14063b08a4fd660ade3db9bbb2026335163d547310564e270a4bbde2f2253cf15f6002541460405161018c9190610363565b60405180910390a1565b5f8054906101000a900473ffffffffffffffffffffffffffffffffffffffff1681565b60025481565b60015481565b5f73ffffffffffffffffffffffffffffffffffffffff82169050919050565b5f6101ee826101c5565b9050919050565b6101fe816101e4565b82525050565b5f6020820190506102175f8301846101f5565b92915050565b5f819050919050565b61022f8161021d565b82525050565b5f6020820190506102485f830184610226565b92915050565b5f82825260208201905092915050565b7f4f6e6c7920746865206f776e65722063616e2063616c6c2074686973206675635f8201527f6e74696f6e000000000000000000000000000000000000000000000000000000602082015250565b5f6102b860258361024e565b91506102c38261025e565b604082019050919050565b5f6020820190508181035f8301526102e5816102ac565b9050919050565b7f4e487b71000000000000000000000000000000000000000000000000000000005f52601260045260245ffd5b5f6103238261021d565b915061032e8361021d565b92508261033e5761033d6102ec565b5b828206905092915050565b5f8115159050919050565b61035d81610349565b82525050565b5f6020820190506103765f830184610354565b9291505056fea26469706673582212205bc3685a904b4837aae2d9182b3b4f5415f744e77e4098b9f21a8706ef494b6364736f6c63430008170033",
  "immutableReferences": {},
  "source": "// SPDX-License-Identifier: MIT\npragma solidity ^0.8.0;\n\ncontract CoinFlipGam{\n    address public owner; // address of owner\n    uint public lastFlipTimestamp; // timestamp of last coin flip\n    uint public lastFlipResult; // result of coin flip 0 = heads,  1 = tails\n\n    event CoinFliped(bool result); // event called when coin is flipped\n\n    // mod that verfies that owner is executing certain fucntions\n    modifier onlyOwner() {\n        require(msg.sender == owner, \"Only the owner can call this fucntion\");\n        _;\n    }\n\n    constructor(){\n        owner = msg.sender;\n    }\n\n    // function that flips coin, only callable by the owner\n    function flipCoin() external onlyOwner() {\n        lastFlipResult = block.timestamp % 2; // determine 0 or 1\n        lastFlipTimestamp = block.timestamp; // record timestamp\n        emit CoinFliped((lastFlipResult == 0)); // emit result of flip\n    }\n}   \n",
  "sourcePath": "/Users/danielpalacio/Desktop/CoinFlipGame/contracts/CoinFlipGame.sol",
  "compiler": {
    "name": "solc",
    "version": "0.8.23+commit.f704f362.Emscripten.clang"
  },
  "schemaVersion": "3.4.16",
  "updatedAt": "2023-12-06T05:21:19.511Z",
  "devdoc": {
    "kind": "dev",
    "methods": {},
    "version": 1
  },
  "userdoc": {
    "kind": "user",
    "methods": {},
    "version": 1
  }
}